:020000040800F2
:10000000788D01209D010008791900083119000838
:1000100075190008B3100008A52C000800000000A6
:10002000000000000000000000000000D11C0008DB
:10003000B113000800000000F5190008C11D0008F8
:10004000B7010008B7010008B7010008B7010008B0
:10005000B7010008B7010008B7010008B7010008A0
:10006000B7010008B7010008B7010008B701000890
:10007000B7010008B7010008B7010008B701000880
:10008000B7010008B7010008B7010008B701000870
:10009000B7010008B7010008B7010008B701000860
:1000A000B7010008B7010008B7010008B701000850
:1000B000B7010008B7010008B7010008B701000840
:1000C000B7010008B7010008B7010008B701000830
:1000D000B7010008B7010008B7010008152900089A
:1000E000B7010008B7010008B7010008B701000810
:1000F000B7010008B7010008B7010008B701000800
:10010000B7010008B7010008B7010008B7010008EF
:10011000B7010008B7010008B7010008B7010008DF
:1001200041110008B7010008B7010008B701000835
:10013000B7010008B7010008B7010008B7010008BF
:10014000B7010008B7010008B7010008B7010008AF
:10015000B7010008B7010008B7010008B70100089F
:10016000B7010008B7010008B7010008B70100088F
:10017000B7010008B7010008B7010008B70100087F
:10018000B7010008B7010008DFF80CD000F01CFC34
:100190000048004755380008788D01200648804700
:1001A00006480047FEE7FEE7FEE7FEE7FEE7FEE75C
:1001B000FEE7FEE7FEE7FEE7711E00088901000882
:1001C00040EA01039B0703D009E008C9121F08C0D9
:1001D000042AFAD203E011F8013B00F8013B521E59
:1001E000F9D27047D2B201E000F8012B491EFBD2D0
:1001F00070470022F6E710B513460A460446194632
:10020000FFF7F0FF204610BD30B505462A460B46E5
:1002100012F8010B13F8014B08B1A042F8D01CB141
:10022000002802D06D1CF1E7284630BD421C10F8B2
:10023000011B0029FBD1801A704700000FB400B5E4
:100240008DB010A909900B9000914FF0FF300A90EB
:1002500000200C9005480690054807906A4609A8BA
:100260000F9900F0A9F90DB05DF814FBD505000851
:10027000F30500082DE9FF5F1D464FF0FF3BD5E970
:10028000014691465F464FF00008A9697F1C01981E
:100290008847296A824688470028F6D1BAF1FF3F8D
:1002A0000CD024F4C064002E19DD600614D5BAF118
:1002B0002B0F09D0BAF12D0F0ED103E0584604B030
:1002C000BDE8F09F44F48064A9697F1C01988847C9
:1002D000761E8246002E02DDBAF1300F03D0B9F14E
:1002E000000F26D032E0A969761E44F400747F1C0A
:1002F000019888478246002E05DDBAF1780F06D0B6
:10030000BAF1580F03D0B9F1000F10D01EE0B9F1C7
:10031000000F02D0B9F1100F18D1A969761E24F48C
:1003200000747F1C019888478246102002E0082054
:1003300000E00A20814609E008FB0908A969761E49
:1003400044F400747F1C019888478246002E05DD26
:100350004946504600F01CF90028EDDAE969019899
:100360008847A00502D46FF00100A8E7E00725D177
:10037000600613D5600502D5C8F1000000E04046D4
:1003800029680A1D2A600968220501D5087015E050
:10039000220701D5088011E008600FE02868011DE0
:1003A00029600068210502D580F8008006E0210759
:1003B00002D5A0F8008001E0C0F8008038467EE752
:1003C0002DE9FE4F81EA030404F0004421F00041CE
:1003D00000944FF0000B23F0004350EA01045ED07C
:1003E00052EA03045BD0C3F30A54C1F30A552C4408
:1003F000A4F2F3340194A0FB0254C1F3130141F4BD
:100400008011C3F3130343F4801301FB024400FB88
:10041000034E840A970A44EA815447EA8357A4FBAF
:10042000076802958D0A05FB07854FEA932C04FBAC
:100430000C542705029D4FEA065847EA1637B5EBDC
:1004400008056EEB070C870E920E47EA811742EA09
:100450008312A7FB0201B6EB0B0164EB00042B0D2A
:1004600043EA0C335E1844EB1C50DA465146E7FB76
:100470000201C5F313044FEA0B3343EA14534FEA66
:100480000432019C43EA0603A4F10C040294009C8C
:10049000CDE900B400F004F903B0BDE8F08F00200E
:1004A0000146F9E700F0004230F000400AD0C10DEB
:1004B00001F56071C0F3160042EA0151C20840071D
:1004C0001143704700200146704701F0004330B4EB
:1004D00021F0004150EA010206D00A0DA2F5607237
:1004E000C1F31301002A02DC30BC00207047440F26
:1004F00044EAC104C100E01830BC00EBC25000F077
:1005000089B830B50B46014600202022012409E0BD
:1005100021FA02F59D4205D303FA02F5491B04FABC
:1005200002F52844151EA2F10102F1DC30BD2DE9CF
:10053000F05F0546002092469B4688460646814667
:1005400040241BE0284641464746224600F05DFA1B
:1005500053465A46C01A914110D3114618462246B6
:1005600000F044FA2D1A67EB01084F46224601209D
:10057000002100F03BFA17EB00094E41201EA4F1C8
:100580000104DFDC484631462A464346BDE8F09F79
:100590003A2800D2303820F02002412A01D3A2F1BB
:1005A0003700884201D34FF0FF3070470268114492
:1005B0001378016018467047D160044951610449BD
:1005C000116200211161114600F046BAAD05000824
:1005D0004F0A0008426842B1016811F8013B23B19B
:1005E000521EC0E90012184670470121C160881EE2
:1005F000704742685AB1C368016843B983688B4247
:1006000005D0491E521CC0E90012002070474FF06F
:10061000FF3070470029A8BF7047401C490008BF41
:1006200020F00100704710B4B0FA80FC00FA0CF022
:1006300050EA010404BF10BC704749B1CCF120045A
:1006400021FA04F411FA0CF118BF012121430843E7
:10065000A3EB0C01CB1D4FEA00614FEA102042BF13
:10066000002010BC704700EBC35010440029A4BF09
:1006700010BC7047401C490008BF20F0010010BCAE
:10068000704710B5141E73F1000408DA401C41F1E4
:10069000000192185B411A4301D120F0010010BD06
:1006A0002DE9F04D92469B4611B1B1FA81F202E07C
:1006B000B0FA80F22032904600F098F904460F46D6
:1006C00040EA0A0041EA0B0153465A46084313D058
:1006D000114653EA010019D0C8F14002504600F01B
:1006E00094F905460E4650465946424600F07EF9BA
:1006F000084305D0012004E020463946BDE8F08DCE
:100700000020054346EAE0762C4337430A98630508
:10071000E40AA0EB08000022FD0A44EA47540A302C
:1007200002D500200146E9E7010510196941DDE91C
:10073000084500196941BDE8F04DA2E72DE9FE4FDB
:10074000804681EA0300C00F0C46009021F0004172
:1007500023F00045B8EB0200A94105D240462146EE
:1007600090461C460B46024623F00040104347D0FB
:10077000270DC7F30A00C3F30A510290401A0190F3
:1007800040286BDAC3F3130040F4801B00989246B4
:1007900020B10023D2EB030A63EB0B0B01985946FF
:1007A000C0F14002504600F021F906460D46504681
:1007B0005946019A00F039F910EB08006141002414
:1007C00087EA115284EAE7731A4340D0009A62B371
:1007D000019A012A4FEA075215DC001B61EB020166
:1007E0004FF0004202EA0752CDE90042001C41F5F9
:1007F000801132462B46FFF753FF03B0BDE8F08F60
:1008000040462146F9E7001B61EB0201001C41F55F
:10081000801300185B412018A2F5001747EB030175
:1008200040EAD570B6196D4111E06D084FEA360601
:1008300045EAC0754FEA0752001B61EB0201001C3C
:1008400041F5801149084FEA300000195141324604
:100850002B4603B0BDE8F04FFFF713BF009801220D
:1008600040000023D0EB020263EBE07300982146C6
:100870004FEAE074B8EB000061EB0401E9E783F0B4
:1008800000435BE781F0004158E72DE9F04D81EA34
:10089000030404F0004B21F0004514464FF0000A19
:1008A00023F0004150EA050220D054EA01021DD095
:1008B000C5F30A570246C5F31303C1F31300C1F38E
:1008C0000A5640F4801543F48013A7EB0608101B6A
:1008D000D64608F2FD3873EB050002D308F1010893
:1008E00001E092185B41B8F1000F03DA00200146E5
:1008F000BDE8F08D00204FF48011064684460EE0DE
:10090000171B73EB050705D3121B63EB05030643A7
:100910004CEA010C49084FEA300092185B4150EA5A
:100920000107EDD152EA030012D082EA040083EA03
:100930000501084305D0101BAB4106D2012200235C
:1009400006E000224FF0004302E06FF00102531076
:100950001AEB06004CEB085110EB0A0041EB0B01BF
:10096000BDE8F04DFFF78DBEC1F30A52C1F313018C
:1009700040F2FF3341F480119A4202DA002001462E
:10098000704740F233439A42A2F2334202DC5242B1
:1009900000F03BB800F02AB830B5041E71F1000435
:1009A00004DB4FF00044404264EB0101141E73F17C
:1009B000000405DB1C464FF00043524263EB040386
:1009C000994208BF904230BD064C074D06E0E068F2
:1009D00040F0010394E8070098471034AC42F6D386
:1009E000FFF7D6FBDC3C0008FC3C0008202A04DBB7
:1009F000203A00FA02F1002070479140C2F1200332
:100A000020FA03F3194390407047202A04DB203A70
:100A100021FA02F00021704721FA02F3D040C2F11E
:100A200020029140084319467047202A06DBCB1765
:100A3000203A41FA02F043EAE07306E041FA02F399
:100A4000D040C2F120029140084319467047C0B21D
:100A50004FF4F05100F096B92DE9F34F8BB04FF001
:100A6000000801F10C000C464FF0010B46460DF159
:100A7000080A01906269012101989047051E2DD056
:100A8000252D2CD0216A8847C0B1626901210198C7
:100A90009047216A88470028F7D1411E6269019872
:100AA000904700E0761CA1690B988847216A884727
:100AB0000028F7D1E1690B988847DBE7A1690B981B
:100AC00088470746A84201D1761CD3E7E1690B9815
:100AD00088477F1C02D1B8F1000F6FD046E1002794
:100AE00062693D463946019890472A2804D16269D7
:100AF0000121019890470125DFF884926269012164
:100B000001989047A0F130010A290AD24F45E5DC4F
:100B100007EB870100EB4107303FDFD445F01005BC
:100B2000ECE7E90601D46FF000476C280AD04C28A6
:100B300014D0682815D06A280DD074281CD07A28C3
:100B40001AD01DE062690121019890476C2802D0FB
:100B500045F0040514E045F002050DE045F02005E0
:100B60000AE06269012101989047682802D045F0A7
:100B7000080505E045F40065626901210198904788
:100B8000C4E9015765283DD019DC58287AD00CDC1F
:100B9000452837D004DC252826D0412831D131E042
:100BA00046282FD047282CD12CE05B2877D061280D
:100BB00028D063287CD0642823D15AE0D0E06F2865
:100BC00048D008DC66281DD067281BD0692821D0B2
:100BD0006E2816D127E0702845D0732868D0752874
:100BE00047D078280DD14DE0A1690B98884705467C
:100BF00025283FF469AFE1690B9888476D1C3FF4E5
:100C00006AAFB3E023466A466FF001000B99AFF379
:100C100000809EE045F040006060A80723464FF04A
:100C2000000236D43EE0E8077FF447AF2068011D9C
:100C300021600068290501D506701BE7290701D549
:100C4000068017E7A90703D5F117C0E9006111E78E
:100C500006600FE745F040006060A80723464FF0AC
:100C6000080216D41EE040F60E0125EA010060607D
:100C700016E045F040006060A80723464FF00A02E6
:100C800007D40FE045F040006060A80708D5234670
:100C900010226FF001000B99AFF3008059E007E0DC
:100CA000234610226FF001000B99FFF7E3FA50E0A2
:100CB0004FF000094F464B46632802D05B2806D010
:100CC00040E0E80601D40120A06001273AE0626913
:100CD0000121019890475E2805D14FF00109626912
:100CE000494601989047216939B900210A4653467F
:100CF00043F82120491C0829FADBB0B3216969B9FE
:100D0000C11700EBD16253110AEB830122F01F02DD
:100D1000821A01200B68904003430B606269012135
:100D2000019890475D28E8D1B9F1000F09D0002063
:100D3000514651F82020D24341F82020401C082879
:100D4000F7DB02AB224600976FF001000B99AFF37F
:100D5000008000280CDA401C08D1BBF1000F05D040
:100D60004FF0FF300DB0BDE8F08FFFE74046F9E7E8
:100D7000E90701D108F1010806444FF0000B79E6BC
:100D8000CCCCCC0C7F2801D9002208E0064A02EB2B
:100D90005002C007127800D1120902F00F020120A0
:100DA0009040084070470000BC3B000821B18268B9
:100DB00042F00102826003E0826822F00102826058
:100DC000704700000021084A1168084A1140D0E924
:100DD00000231A4383681A43C3681A431143044A21
:100DE000C2F804137047000004230140E030FCFF08
:100DF0000020014000B59BB000F0C4F8434800F06B
:100E0000DBF90121880500F05DFE0121080200F0F8
:100E100089FE0121480200F085FE38208DF804008B
:100E200000208DF805008DF8060001208DF80700E0
:100E300001A800F0A3FD002002903548039035483A
:100E400004900020059046F2A8100690002007901C
:100E50004FF4806008904000099080000A900020C4
:100E60000B904FF400300C9000200D9001200E905C
:100E700000200F90109002A9244800F06BFA002186
:100E8000224800F08DF92449204800F06FF9012232
:100E900010211E4800F040FA00201190129013908B
:100EA000149011A8FFF78EFF002015908DF85800C0
:100EB0008DF859004FF08050179040101890002086
:100EC000199001208DF8680015A911484C3800F0E0
:100ED00065F80023012202210D484C3800F088F803
:100EE00001210B484C3800F024F8012108484C3807
:100EF00000F014F8012106484C38FFF757FF04486A
:100F00004C3800F0D1F81BB000BD00001064024066
:100F10004C20014028C600202080001021B18268AA
:100F200042F48072826003E0826822F48072826000
:100F3000704721B1826842F40072826003E08268E7
:100F400022F400728260704710B504460A480068B7
:100F500020F0010008490860081D04600749001FCF
:100F600000F004F90020064908600348006840F0DA
:100F700001000149086010BD106402403CF00010FF
:100F80000020014010B50121080200F0DBFD002126
:100F90004FF4807000F0D6FD10BD000030B5024661
:100FA000002000235068104C20400D790C6844EA62
:100FB00005242043506090680C4C2040D1E9035434
:100FC0002C438D682C434D7944EA450420439060BE
:100FD000D06A20F470000C7D641EE4B2234340EA22
:100FE0000350D06230BD0000FFFEFFFCFDF7FFC0E4
:100FF000F0B504460D4600200021092D11DDE06802
:10100000A5F10A0606EB4607072606FA07F188430C
:10101000A5F10A0606EB460603FA06F10843E0606E
:101020000CE0206905EB4507072606FA07F188431F
:1010300005EB450603FA06F108432061072A0FDA9B
:10104000606B561E06EB86071F2606FA07F18843DB
:10105000561E06EB860605FA06F10843606322E099
:101060000D2A0FDA206BD61F06EB86071F2606FA1D
:1010700007F18843D61F06EB860605FA06F10843FA
:10108000206310E0E06AA2F10D0606EB86071F263A
:1010900006FA07F18843A2F10D0606EB860605FA6B
:1010A00006F10843E062F0BD816841F08041816053
:1010B000704700BFFEE710B50121084600F002FDB1
:1010C0000121022000F0FEFC0121042000F0FAFCC6
:1010D0000121082000F0F6FC0121102000F0F2FCB4
:1010E0000121202000F0EEFC0121402000F0EAFC6C
:1010F0000121880300F0E6FC10BD70B5402001F02E
:1011000007FE002518E005F1B001C8B201F000FEAD
:1011100000240DE004F00F0001F0FAFD102141EA77
:10112000141001F0F5FD002001F0D4FD601CC4B2E4
:10113000802CEFDB681CC5B2082DE4DB70BD00001D
:1011400010B50749074800F011F84FF6FF70054940
:10115000091F0860091F086001200349087010BDBD
:101160003CF0001010640240000000200246094BD1
:101170009A4201D2084801E00648103801F00053B5
:101180001BB1064B0B40C36002E0044B0B40836075
:101190007047000010640240006002407D0F7D0F28
:1011A00021B1026842F00102026003E0026822F00D
:1011B0000102026070470000016821F00101016036
:1011C0000021016041608160C160016121214161B4
:1011D0004A49884204D13D21484A103A91608CE046
:1011E00046491831884205D14FF47461434A103A98
:1011F000916082E041493031884205D14FF4741149
:101200003E4A103A916078E03C494831884205D125
:101210004FF07461394A103A91606EE0374960319D
:10122000884204D13649354A103AD16065E03349E5
:101230007831884204D13349304A103AD1605CE0B9
:101240002E499031884204D12F492C4A103AD1605E
:1012500053E02A49A831884205D14FF03D51274A31
:10126000103AD16049E02949884204D13D21274AFA
:10127000083A116041E025491831884205D14FF400
:101280007461224A083A116037E0204930318842BF
:1012900005D14FF474111D4A083A11602DE01B4925
:1012A0004831884205D14FF07461184A083A1160FC
:1012B00023E016496031884204D11149134A121FB4
:1012C00011601AE011497831884204D10D490F4A62
:1012D000121F116011E00D499031884204D10A4972
:1012E0000A4A121F116008E00849A831884204D157
:1012F0004FF03D51054A121F1160704710600240C7
:101300003D000020400F002000003D2010640240FE
:101310000146486880B2704710B501F080034BB1B8
:1013200022B1436943F08003436103E0436923F042
:101330008003436180290BD02AB1036801F01E04A9
:101340002343036004E0036801F01E04A343036029
:1013500010BD000010B500220268134B1A40CC6883
:101360000B6823434C6923438C692343CC69234393
:101370000C6A23434C6A23438C6A23434C6B2343FC
:101380008C6B23431A430260426922F00702D1E9C1
:101390000B3423431A4342610B6943604B688360FB
:1013A0008B68C36010BD00003F801CF04160704737
:1013B0007047000010B503464FF47A7103FB01F04B
:1013C000054C21686468421800BF02F03DFA002411
:1013D000101A8C41F9D210BD2800002010B5024629
:1013E000054908684968831800BF02F02DFA0024F7
:1013F000181A8C41F9D210BD280000207FB5044690
:101400002BA538A12046FEF7FFFE40B13848FEF775
:101410000DFFC6B23146364800F088F947E035A1E5
:101420002046FEF7F1FE40B13548FEF7FFFEC6B29A
:101430003146334800F07AF939E032A12046FEF710
:10144000E3FE00282BD003A801AB02AA30A1009034
:101450002046FEF7F3FE0646032E1CD10398002813
:1014600001DA002003900398B0F5B47F02DD4FF459
:10147000B4700390039800EB8000092190FBF1F019
:101480003230039029A0039901F088FC2B4803997E
:1014900000F002FF02E02AA001F080FC07E02846ED
:1014A000FEF7C4FEC6B23146284600F03FF97FBDC4
:1014B00056414C494420434D442C706C6561736522
:1014C00020656E7465722054454D50455241545507
:1014D0005245206F722048554D49444954592121A5
:1014E0002100000054454D5045524154555245008D
:1014F00058C5002048554D49444954590000000042
:1015000080C50020536572766F536574000000003B
:101510000D0A2B4950442C25642C25643A536572DE
:10152000766F536574282564290000005365727630
:101530006F536574205B25645D0D0A000000014057
:101540004572726F7220434D440D0A0010B5044677
:1015500004EB4400114A02EB800041681048FEF79A
:1015600053FE38B1012004EB44010C4A02EB810127
:1015700088720EE004EB4401084A02EB81010889FD
:10158000FFF718FF022004EB4401044A02EB81013B
:10159000887280210248FEF72CFE10BD70000020EA
:1015A000D8C4002000B5A1B08022184901A8FEF7D8
:1015B00007FE1748007850B916A101A8FEF724FECF
:1015C00028B116A001F0EAFB01201149087016A10C
:1015D00001A8FEF719FE38B115A001F0DFFB01A844
:1015E000FFF70CFF21B000BD16A101A8FEF70CFE0D
:1015F00028B116A001F0D2FB002005490870802117
:1016000001A8FEF7F6FD00BFECE70000D8C40020FB
:101610006C000020434F4E4E454354005749464905
:10162000D2D1C1ACBDD30A002B4950440000000008
:1016300057494649CAD5B5BDC9CFCEBBBBFACAFDCD
:10164000BEDD0A00434C4F5345440000574946490C
:10165000B6CFBFAAC1ACBDD30A00000010B54FF48D
:101660007A70FFF7A7FE002401240AE0204600F06C
:1016700023F8012803D006A001F090FB10BD601CE8
:10168000C4B2052CF2DD07A001F088FB00BFF5E72E
:10169000504553333220496E6974206661696C6528
:1016A000640A0000504553333220496E6974205358
:1016B0007563636573730A0070B50446002004EB1C
:1016C0004401194A02EB8101887204EB440152F88B
:1016D0002100FEF7ABFDC5B204EB4401124A52F8FB
:1016E0002100294601F0E0FA04EB44010E4A02EB26
:1016F00081010889FFF75EFE0BE02046FFF726FF19
:1017000004EB4400084901EB8000807A022800D1F4
:1017100070BD04EB4400044901EB8000807A01288D
:10172000EBD100BFF4E7000070000020F0B589B0F5
:1017300006460D46202101A8FEF75BFD20480078F3
:1017400028B920A001F02AFB032009B0F0BD2B46E8
:10175000002222A101A801F031FB072401A8FEF715
:1017600065FD87B2394601A801F09EFA04EB4401F9
:101770001F4A02EB81010889FFF71CFE002004EBE1
:1017800044011B4A02EB810188720BE02046FFF7FF
:10179000DDFE04EB4400164901EB8000807A02284C
:1017A00000D1D2E704EB4400114901EB8000807ABC
:1017B0000128EBD12946304601F076FA0120C4E732
:1017C0006C0000204E6F2064657669636520636F4E
:1017D0006E6E6563746564210D0A000041542B43ED
:1017E000495053454E443D25642C25640D0A0000A4
:1017F0007000002010B52DED028B00F0B3FD0AA0A3
:1018000002F012F90420FFF7E9FD0C480068FEF72A
:1018100049FE41EC180B53EC182B09A002F004F917
:10182000BDEC028B10BD000041542B434950534581
:101830004E443D302C340D0A0000000014000020FE
:1018400025660D0A0000000070477047704770471A
:10185000F0B50A4600210023002400BF3DE0012529
:1018600005FA01F3156805EA03049C4234D10568C2
:101870004F000326BE40B543056015794E00B540C4
:101880000668354305601579012D02D01579022DC2
:1018900016D185684F000326BE40B5438560557953
:1018A0004E00B540866835438560456801268E4008
:1018B000B5434560456896798E40B6B2354345607C
:1018C000C5684F000326BE40B543C560D5794E00BC
:1018D000B540C6683543C560491C1029BFD3F0BD6B
:1018E000F0B5002300244D07ED0E02FA05F3CE10EB
:1018F00000F1200555F826504E07F70E0F26BE4082
:10190000B543CF1000F1200646F82750CE1000F165
:10191000200555F8265045EA0304CE1000F12005B5
:1019200045F82640F0BD41837047018370470000B1
:1019300086B000BFEFF3098004461CB900BFEFF387
:10194000088004464834D4E90423D4E90610CDE9DC
:101950000223CDE90410D4E90201CDE900012146BA
:101960000348D4E9002301F019FA00BFFEE70000A4
:10197000FC3B000800BFFEE77047000070B5002187
:1019800000230F22C4781CB3174C246804F4E064CD
:10199000C4F5E064C4F30721C1F10404E3B20A41D1
:1019A00044789C40E1B28478144021430C07210E16
:1019B0000E4C05786155047804F01F050124AC40F5
:1019C00005786D11AD0005F1E025C5F8004109E08D
:1019D000047804F01F050124AC40054D067876110B
:1019E00045F8264070BD00000CED00E000E400E08A
:1019F00080E100E0704700001CB5FFF75CFB0220AF
:101A000000908DF8040000208DF805008DF8060088
:101A10008DF8070069462948FFF71AFF0122114691
:101A20002648FFF75DFF0420009003208DF8040096
:101A300000208DF8070069462048FFF709FF4FF4A2
:101A4000C060009002208DF805008DF80400002091
:101A50008DF807008DF8060069461848FFF7F8FE74
:101A6000072209211548FFF73BFF07220A211348E7
:101A7000FFF736FFF820009001208DF804000020C9
:101A80008DF8060002208DF8050000208DF8070073
:101A900069460B48FFF7DCFEF8210948FFF743FFD2
:101AA0004FF48070009001208DF8040000208DF824
:101AB000070069460248FFF7CBFE1CBD000002404C
:101AC000000C024029B1064A12680243044B1A6016
:101AD00004E0034A12688243014B1A607047000019
:101AE0003038024029B1064A12680243044B1A609A
:101AF00004E0034A12688243014B1A6070470000F9
:101B00004038024029B1064A12680243044B1A6069
:101B100004E0034A12688243014B1A6070470000D8
:101B20002038024029B1064A12680243044B1A6069
:101B300004E0034A12688243014B1A6070470000B8
:101B40004438024029B1064A12680243044B1A6025
:101B500004E0034A12688243014B1A607047000098
:101B600024380240F0B5002100220024022500267E
:101B70000223324F3F6807F00C0121B1042905D040
:101B8000082937D105E02E4F076036E02D4F07605A
:101B900033E02A4F3F1F3F68C7F38056274F3F1F50
:101BA0003F6807F03F036EB1264FB7FBF3F7DFF84E
:101BB0008CC0ACF1040CDCF800C0CCF3881C07FB33
:101BC0000CF40CE01E4FB7FBF3F7DFF870C0ACF17C
:101BD000040CDCF800C0CCF3881C07FB0CF4174F96
:101BE0003F1F3F68C7F301477F1C7D00B4FBF5F73B
:101BF000076002E0124F076000BF00BF0F4F3F6851
:101C000007F0F0010909104F7A5C0768D740476078
:101C10000A4F3F6807F4E051890A0B4F7A5C476826
:101C2000D7408760054F3F6807F46041490B064F76
:101C30007A5C4768D740C760F0BD000008380240B2
:101C40000024F40000127A00E400002010B52021E6
:101C50001E48FFF768FE6420FFF7C0FB20211B48E9
:101C6000FFF763FE6420FFF7B9FBAE2001F050F8E8
:101C7000A22001F04DF8A02001F04AF8C02001F0A8
:101C800047F8242001F044F8812001F041F8222097
:101C900001F03EF82F2001F03BF8A62001F038F8C3
:101CA000A42001F035F8AF2001F032F8FFF725FA53
:101CB000402001F02DF8B02001F02AF8102001F0AA
:101CC00027F8002001F024F810BD0000000C0240AD
:101CD000704700000CB50020019000903448006867
:101CE00040F480303249086000BF3148006800F499
:101CF000003000900198401C0190009818B901989C
:101D0000B0F5A04FF1D12A48006800F4003010B1BE
:101D10000120009001E0002000900098012846D1A9
:101D200023484030006840F080502149403108602D
:101D30002048006840F440401E4908601C480830B4
:101D400000681B49083108600846006840F40040FC
:101D500008600846006840F4A05008601648091F53
:101D60000860081F006840F08070091F086000BF0D
:101D70000F48006800F000700028F9D040F20570AC
:101D80000E4908600A480830006820F0030008493E
:101D9000083108600846006840F00200086000BF93
:101DA00003480830006800F00C000828F8D10CBD8A
:101DB000003802400070004008544007003C0240D8
:101DC00000B50C48036840685A1C40F100000949FE
:101DD0000A60486008480068401E074908600846D5
:101DE0000068002804DC4FF47A70086000F044FFBB
:101DF00000BD0000280000206800002030B5002051
:101E0000164A1060506016480068164AB0FBF2F19E
:101E1000481EB0F1807F01D301201BE0481E4FF027
:101E2000E022506150170F22002807DA13071D0E19
:101E30000D4B00F00F04241F1D5503E013071C0E6B
:101E40000A4B1C5400BF00204FF0E0229061072095
:101E50001061002008B100BFFEE730BD280000205F
:101E6000F400002040420F0018ED00E000E400E024
:101E700010B51548006840F4700013490860134815
:101E8000006840F001001149086000200F49083146
:101E900008600E4800680E4908400C4908600D486B
:101EA000091D0860081F006820F48020091F0860D1
:101EB000002006490C310860FFF70CFF4FF000606E
:101EC00001498039086010BD88ED00E0003802400B
:101ED000FFFFF6FE1030002430B58BB004460D46EF
:101EE00001210846FFF71EFE01210846FFF7EAFD23
:101EF000012208212848FFF7F3FC4FF48070099075
:101F000002208DF8280003208DF8290000208DF88C
:101F10002A0001208DF82B0009A91F48FFF798FC23
:101F2000A8B2ADF818000020ADF81A000794ADF87B
:101F300020008DF8220006A9184800F0AFF96020B3
:101F4000ADF804000120ADF806000420ADF808004B
:101F500000200390ADF81000ADF812004FF480702F
:101F6000ADF814000020ADF8160001A90B4800F0F0
:101F7000E3F80821094800F01DF90121074800F0A5
:101F8000B3F80121054800F0BBF80121034800F037
:101F9000C3F80BB030BD000000000240000001405B
:101FA00070B588B00546012401E0601C84B2244865
:101FB00000684008B0FBF5F0B0FBF4F0B0F5803FEE
:101FC000F3D21F4800684008B0FBF5F0B0FBF4F016
:101FD000461E01210846FFF785FD0696601E80B269
:101FE000ADF814000020ADF81C00ADF8160005A9EE
:101FF0004FF0804000F052F96020ADF80000012061
:10200000ADF80200700802900020ADF80C0069469F
:102010004FF0804000F0D8F80821C80600F026F9FB
:1020200000214FF0804000F05FF800214FF0804029
:1020300000F066F80121880700F06EF808B070BD66
:10204000F400002010B500204FF0804148620121CB
:10205000880700F055F810BD10B500214FF0804002
:1020600000F04EF800204FF08041486210BD0000A3
:10207000FEB50546012401E0601C84B218480068E2
:102080004008B0FBF5F0B0FBF4F0B0F5803FF3D2C0
:10209000134800684008B0FBF5F0B0FBF4F0461EB2
:1020A00001210220FFF71EFD0196601E80B2ADF8EF
:1020B00000000020ADF80800ADF8020069460948AC
:1020C00000F0ECF82021074800F0DDF80121054878
:1020D00000F00AF80121034800F012F8FEBD0000EC
:1020E000F40000200004004021B1028842F0800288
:1020F000028004E002884FF67F731A400280704726
:1021000021B1028842F00102028004E002884FF609
:10211000FE731A400280704731B1B0F8442042F497
:102120000042A0F8442005E0B0F84420C2F30E02BB
:10213000A0F844207047000070B50024002200235E
:10214000058C4FF6FE7635400584028C8388048B1F
:102150004FF68F752C40B51E2C400D882C43751EF4
:102160002A408D892A434D882A43104DA84202D027
:102170000F4DA84213D14FF6F7752A40CD892A4357
:102180004FF6FB752A408D882A434FF6FF652B409A
:102190004FF6FF552B400D8A2B434D8A2B438380EE
:1021A00004838D684563028470BD00000000014017
:1021B000000401400A460021018B4FF6F7731940D5
:1021C000114301837047000070B5002400220023F2
:1021D000058C4FF6EF7635400584028C8388048B9E
:1021E00048F6FF752C404FF6FF452C400D884FF602
:1021F000FF7606EA05252C434FF6DF752A408D89C8
:1022000006EA05152A434D8806EA05152A43154DA9
:10221000A84202D0144DA8421DD14FF67F752A4026
:10222000CD894FF6FF7606EA05152A434FF6BF75AE
:102230002A408D8806EA05152A434FF6FF352B40C4
:102240004FF2FF752B400D8A06EA85052B434D8A18
:1022500006EA85052B43838004838D6885630284A9
:1022600070BD000000000140000401400A4600214A
:10227000018B4FF2FF7319404FF6FF7303EA0223FD
:1022800019430183704782884FF68F731A4082800A
:1022900082880A4382807047416370470022028827
:1022A000184B98420ED0184B98420BD0B0F1804F8B
:1022B00008D0164B984205D0154B984202D0154BCA
:1022C000984204D14FF68F731A404B881A43124B31
:1022D000984207D0114B984204D04FF6FF431A4062
:1022E0000B891A4302804B68C3620B880385054B38
:1022F000984202D0044B984201D18B7A0386012385
:102300008382704700000140000401400004004047
:1023100000080040000C0040001000400014004085
:1023200010B5002418E004EB44000D4951F82000DA
:1023300004EB44010A4A02EB8101496888420AD948
:10234000002004EB440142F8210004EB440102EBBD
:10235000810188688047641C042CE4D310BD000010
:102360003000002070B52DED028B002500BFEC2061
:10237000474908600846006800F0A8F90546454846
:1023800090ED000A80ED000A6DB94FF4807040496D
:10239000086008460168082000F08AF83D4890ED82
:1023A000000A80ED000AFEF7A8FE3A4890ED000A08
:1023B000BCEEC00A10EE104A00221146042001F0C3
:1023C000B3FA01221021042001F0AEFA02222021EA
:1023D000042001F0A9FA42F21070B4FBF0F00A21D7
:1023E000B0FBF1F201FB120006B2324630210420AC
:1023F00001F0DAFA4FF47A70B4FBF0F00A21B0FB86
:10240000F1F201FB120006B232463821042001F03D
:10241000CBFA6420B4FBF0F00A21B0FBF1F201FB2F
:10242000120006B232464021042001F0BDFA0A2013
:10243000B4FBF0F00A21B0FBF1F201FB120006B28E
:1024400032464821042001F0AFFA0A20B4FBF0F133
:1024500000FB114006B232465021042001F0A4FADC
:1024600003226021042001F05FFA0422702110464B
:1024700001F05AFA07480068FEF714F841EC180B0F
:1024800053EC182B04A000F089FCBDEC028B70BD4E
:10249000240000201400002043757272656E7420C1
:1024A00052616E6765203D202566200D0A00000000
:1024B0002DE9F05F2DED048B81460E4609EB890076
:1024C0001FFA80FB00EE106AB8EE400A10EE100A08
:1024D000FDF7E8FF41EC190B9FED710B53EC102B4E
:1024E000FDF76EFF41EC180BFDF7EFFF6E4908603A
:1024F000084690ED000AF1EE040A30EE200A80ED65
:10250000000A012069490860FFF79CFD46F2A81007
:10251000FEF71AFD5846FEF761FFFFF79DFD782094
:10252000FEF748FF00206249C1F8A002002412E033
:10253000002527463C4607F1010AA04605E05D4814
:1025400030F81800054408F10108D045F7D35A497E
:1025500021F81450641C46F2A7108442E8D30020EE
:1025600056490860344608E0534830F8140053498F
:102570000968084451490860641C46F244108442CA
:10258000F2D3801B4D490968B1FBF0F04B4908605C
:1025900000204B49086000241AE0474830F81450E6
:1025A000A01E454931F810000544601E31F81000A6
:1025B0000544A01C31F810000544601C31F81000DF
:1025C00005443F480068A84201D23D480560641CAC
:1025D00046F244108442E0D3394800680521B0FB3C
:1025E000F1F036490968401A3449096801EB900056
:1025F00032490860002033490860344622E02E4802
:1026000030F814002D49096888421AD92A49601CFB
:1026100031F8100029490968884212D92649A01CBE
:1026200031F810002549096888420AD92249E01C7E
:1026300031F8100021490968884202D92148046014
:1026400004E0641C46F244108442D8D300BF1D4805
:1026500090ED000AB8EE400A10EE100AFDF722FFD6
:1026600041EC190B9FED0E0B53EC102BFDF7A8FE60
:1026700041EC180BFDF729FF13490860084690ED5F
:10268000000A0948D0ED000AB4EEE00AF1EE10FAB3
:1026900004DD0020BDEC048BBDE8F09F0120F9E7CC
:1026A0000000000000000D4060000020A0824142B8
:1026B0000080414228C6002008010020640000205C
:1026C000180000201C000020140000202DE9F04715
:1026D0002DED048B064600EE106AB8EE400A10EEAF
:1026E000100AFDF7DFFE41EC190B9FED6D0B53EC6B
:1026F000102BFDF765FE41EC180BFDF7E6FE6A496D
:102700000860084690ED000AF1EE040A30EE200A57
:1027100080ED000AFFF796FC46F2A810FEF714FCC5
:102720000520FEF75BFEFFF797FC7820FEF742FEE0
:10273000002412E0002527463C4607F10109A04687
:1027400005E05A4830F81800054408F10108C8456A
:10275000F7D3574921F81450641C46F2A71084425D
:10276000E8D3002053490860344608E0504830F868
:1027700014005049096808444E490860641C46F238
:1027800044108442F2D3801B4A490968B1FBF0F03F
:102790004849086000204849086000241AE044487D
:1027A00030F81450A01E424931F810000544601E54
:1027B00031F810000544A01C31F810000544601CDD
:1027C00031F8100005443C480068A84201D23A485C
:1027D0000560641C46F244108442E0D33648006829
:1027E0000521B0FBF1F033490968401A3149096805
:1027F00001EB50002F490860002030490860344642
:1028000022E02B4830F814002A49096888421AD976
:102810002749601C31F8100026490968884212D9FE
:102820002349A01C31F810002249096888420AD9BE
:102830001F49E01C31F810001E490968884202D97E
:102840001E48046004E0641C46F244108442D8D35D
:1028500000BF1A4890ED000AB8EE400A10EE100AC8
:10286000FDF720FE41EC190B9FED0D0B53EC102BE7
:10287000FDF7A6FD41EC180BFDF727FE1049086097
:10288000084690ED000AB5EEC00AF1EE10FA04D148
:102890000020BDEC048BBDE8F0870120F9E70000C3
:1028A0000000000000000D406000002028C600204D
:1028B0000801002064000020180000201C000020F7
:1028C000140000207FB505460C46284600F082F82B
:1028D00001211020FFF726F901214804FFF702F932
:1028E00001218804FFF7FEF800940020ADF80400F1
:1028F000ADF80600ADF80800ADF80C000C20ADF8FE
:102900000A006946284600F039F90121284600F0FE
:102910004CF87FBD10B540F22441164800F0DFF8B6
:1029200038B314480088C4B21248001D0088C4B2ED
:1029300000211148FEF734FC0F48FEF7E9FCC0F116
:1029400080000E490870084602780D490D48FDF7D1
:1029500037FC80210A48FDF74CFC01200A49087029
:1029600080210548FEF722FD01210348FEF718FCEF
:1029700000BF10BD0048004028600240DC0000207D
:10298000A8C50020D8C40020DE00002010B5002219
:10299000002340F66A14A14200D100BF0A120124AC
:1029A0009440A3B2DC43048010BD21B1828942F47B
:1029B0000052828104E082894DF6FF731A408281C1
:1029C00070471AB1838A0B43838202E0838A8B4368
:1029D0008382704710B504463248844208D10121F1
:1029E0001020FFF7AFF800211020FFF7ABF857E0F9
:1029F0002D48844209D101214804FFF783F80021C2
:102A00004FF40030FFF77EF84AE02848844209D1AD
:102A100001218804FFF776F800214FF48020FFF7AA
:102A200071F83DE02248844209D10121C804FFF732
:102A300069F800214FF40020FFF764F830E01D48EA
:102A4000844209D101210805FFF75CF800214FF409
:102A50008010FFF757F823E01748844208D101217E
:102A60002020FFF76FF800212020FFF76BF817E018
:102A70001248844209D101218807FFF743F8002159
:102A80004FF08040FFF73EF80AE00D48844207D13E
:102A900001214005FFF736F800216005FFF732F805
:102AA00010BD0000001001400044004000480040FC
:102AB000004C0040005000400014014000780040ED
:102AC000007C004002460020B1F5007F00D100BF2D
:102AD00013880B400BB1012000E00020704770B557
:102AE0000246002400230025002040F66A16B14269
:102AF00000D100BFC1F3421501F01F03012606FA01
:102B000003F3012D02D19689334006E0022D02D154
:102B1000168A334001E0968A33400C12012606FAE9
:102B200004F41688344013B10CB1012000E00020F9
:102B300070BDF0B50346002400260025002040F6B5
:102B40006A17B94200D100BF1846C1F3421401F020
:102B50001F06012707FA06F5012C01D10C3004E00D
:102B6000022C01D1103000E014301AB107682F4355
:102B7000076002E00768AF430760F0BD2DE9FF473B
:102B800005460E460024A14600BFA046B08900B10C
:102B900000BF2C8A24F44054F08804432C82AC8972
:102BA00041F20C608443B08831890843718908433D
:102BB0000443AC81AC8A24F44074B0890443AC82F1
:102BC0006846FEF7CFFF2048854202D01F48854265
:102BD00002D1DDF80C9001E0DDF80890A88900F43E
:102BE000004040B109EBC90000EB09103168490011
:102BF000B0FBF1F707E009EBC90000EB0910316801
:102C00008900B0FBF1F76420B7FBF0F00401200964
:102C1000642101FB1078A88900F4004040B1322003
:102C200000EBC800B0FBF1F000F00700044308E03F
:102C3000322000EB08106421B0FBF1F000F00F002F
:102C400004432C81BDE8FF870010014000140140BF
:102C5000C1F308028280704770B504460D462946CC
:102C60002046FFF7F5FF00BF40212046FFF72AFF6F
:102C70000028F9D070BD000000B5FEF7E8FD002087
:102C80000BE000EB4001064A52F82110491C00EB12
:102C90004002034B43F82210401C0428F1D300BD2E
:102CA0003000002000BFFEE770B505460E46002448
:102CB0000BE000BF40210648FFF704FF0028F9D0D1
:102CC000295D0348FFF7C4FF641CB442F1DB70BD0B
:102CD0000048004010B5044610210C48FEF723FEC2
:102CE0000120FEF77BFB40210848FEF71EFE012075
:102CF000FEF774FB80210548FEF715FE204600F024
:102D000025F880210148FEF710FE10BD000C02409E
:102D100010B5044610210C48FEF705FE0120FEF711
:102D20005DFB40210848FEF7FEFD0120FEF756FB43
:102D300080210548FEF7F7FD204600F007F88021C6
:102D40000148FEF7F2FD10BD000C024070B50446CC
:102D500000251DE004F0800020B108210E48FEF798
:102D6000E4FD03E008210C48FEF7DDFD6006040EDB
:102D700010210948FEF7D9FD0120FEF72FFB102195
:102D80000548FEF7D0FD0120FEF728FB681CC5B200
:102D9000082DDFDB70BD0000000C02400FB4054BB6
:102DA00010B503A9044A029800F000F910BC5DF8C0
:102DB00014FB000025380008E00000200FB4084B89
:102DC00010B504A902AA039800F0F0F8044602A97D
:102DD000002000F082FC204610BC5DF814FB0000CF
:102DE000DB36000837B514460846064B6A462146CE
:102DF00000F0DCF804466946002000F06EFC204636
:102E00003EBD0000DB36000802E008C8121F08C102
:102E1000002AFAD170477047002001E001C1121F5B
:102E2000002AFBD1704700002DE9FF5F82B000212E
:102E3000DDE90430020DDDF840B0034318D044F65C
:102E40001050A2F2FF3242431514119801281FD0EE
:102E5000A5EB0B00401C5FEA000A4FF000064E4F46
:102E6000DFF83891B046504615D5CAF1000413E09A
:102E7000119801244AA3012801D16FEA0B0102989D
:102E8000119AC0E90031C0E9024206B0BDE8F09FE6
:102E9000CBF10000DFE704460021404A491842EB2D
:102EA0000450CDE9001012E0E00707D032463B465F
:102EB00040464946FDF784FA8046894632463B46FD
:102EC00010461946FDF77CFA06460F466410002CA2
:102ED000EAD1DDE90401DDE90023BAF1000F06DAE9
:102EE000FDF76EFA42464B46FDF76AFA05E0FDF73C
:102EF000CCFC42464B46FDF7C8FC04460E46002279
:102F0000284BFDF749FD03D84FF0FF30014607E09D
:102F10000022254B20463146FDF710FCFDF724FD2D
:102F2000102409E0002C0ADB0A220023FDF7FFFA37
:102F3000039B30321A55641E50EA0102F2D1641C20
:102F4000039AC4F111031444119A012A03D00122F7
:102F500008430DD10AE0084304D000204FF0110BC4
:102F6000119072E7A3EB0B056D1E0DE05B4504DDD0
:102F70004FF0000205F1010504E003DA4FF0000212
:102F8000A5F10105002AECD002981199C0E902319F
:102F9000C0E9004579E70000000014400000F03F60
:102FA000300000000000F0430000E03F2DE9FF4F3B
:102FB00095B09B468946064600250FE2252877D125
:102FC00000242746F84A0121059400E0044316F83E
:102FD000013F203B01FA03F01042F7D130782A2854
:102FE00011D06FF02F033078A0F13002092A16D8E3
:102FF000059A44F0020402EB820203EB4202104401
:10300000761C0590EFE759F8042B0592002A03DAA5
:10301000504244F40054059044F00204761C307889
:103020002E2816D116F8010F44F004042A280DD0DA
:103030006FF02F023078A0F13003092B09D807EB8D
:10304000870302EB4303C718761CF3E759F8047BA8
:10305000761C30786C280FD006DC4C2817D06828F6
:103060000DD06A2814D104E0742810D07A280FD12A
:103070000DE044F400140AE044F4801401E044F448
:1030800040147278824202D104F58014761C761CBA
:10309000307866280BD013DC582877D009DC00285C
:1030A00075D04528F6D04628F4D047281AD19DE19E
:1030B00018E0632835D0642879D0652812D195E1CD
:1030C000702873D008DC6728F1D069286FD06E288B
:1030D0000DD06F2806D1B5E073282CD0752875D097
:1030E000782874D05A46179990476D1C75E1C4F33F
:1030F0000250022809D003280DD0D9F80010042866
:103100000DD00D6009F1040967E1D9F80010EA1744
:10311000C1E90052F6E7D9F800100D80F2E70D7012
:10312000F0E719F8041B8DF8001000208DF801005D
:10313000EA46012003E059F804AB4FF0FF30610785
:103140004FF0000102D40DE008F101018846B942B8
:103150000FDA8045F8DB1AF808100029F4D108E0EE
:1031600008F1010188468142FADB1AF808100029AB
:10317000F6D105985B46A0EB080721463846179A1A
:1031800000F094FA284400EB080507E04DE029E13F
:103190000DE01AF8010B5A4617999047B8F101084B
:1031A000F7D25B4621463846179A13E142E00A22DD
:1031B0000092C4F302524FF0000A022A08D059F8D4
:1031C00004CB032A4FEAEC710AD00DE029E02AE093
:1031D00009F1070121F00702F2E802C1914609E076
:1031E0000FFA8CFC4FEAEC71042A03D14FFA8CFCE5
:1031F0004FEAEC71002907DA0A460021DCF1000CE5
:1032000061EB02012D2202E0220504D52B228DF86C
:103210000420012203E0E20701D02022F7E79046D4
:1032200059E00A2102E010220DE010214FF0000ABF
:1032300000910BE010224FF0000A44F0040408272C
:10324000009203E008224FF0000A0092C4F30252F9
:10325000022A05D059F804CB0021032A08D009E03E
:1032600009F1070121F00702F2E802C1914605E0E9
:103270001FFA8CFC042A01D10CF0FF0C4FF000085F
:10328000220728D5702806D0009B83F0100353EA4C
:103290000A0305D00EE040228DF80420012208E048
:1032A0005CEA010206D030228DF804208DF805007A
:1032B00002229046009B83F0080353EA0A030AD1D6
:1032C0005CEA010201D1620705D530228DF80420A5
:1032D0004FF001087F1E582804D034A003900EA898
:1032E00002900DE036A0F9E753466046009AFDF7DC
:1032F0001EF984460398825C0298401E0290027078
:103300005CEA0100F0D1029806A9081A00F1200A2F
:10331000600702D524F4803400E00127574502DD20
:10332000A7EB0A0000E0002000EB0A0100900598DE
:103330004144401A0590E00306D45B462146179AA3
:10334000059800F0B3F90544002706E001A85A46A5
:10335000C05D179990476D1C7F1C4745F6DBE00365
:103360000CD55B462146179A059800F09FF9054455
:1033700004E030205A46179990476D1C0099481E6A
:1033800000900029F5DC08E0029802995A4600787E
:10339000491C0291179990476D1CBAF10001AAF1DE
:1033A000010AF1DC65E10000092801003031323307
:1033B0003435363738396162636465660000000071
:1033C000303132333435363738394142434445465B
:1033D0000000000000F058F90544761C3078002801
:1033E0007FF4ECAD19B02846BDE8F08F620700D439
:1033F000062709F1070222F0070CFCE80223E14648
:1034000003F000485FEA080C02D00FF2702C0DE0C8
:103410005FEA045C02D50FF2682C07E05FEAC47C27
:1034200002D00FF2602C01E0AFF2700C4FF0FF38C9
:1034300023F00043CDF850C065280CD006DC4528A9
:1034400009D046281DD047283DD13DE0662818D038
:1034500067287ED138E00021112F01DB112000E028
:10346000781CCDE9000106A90EA8FFF7DDFCDDE917
:103470000F010E9A03910021009207F1010A0491B5
:103480004DE04FF000400097CDE9011006A90EA8CD
:10349000FFF7CAFCDDE90F0203920E9B119900228F
:1034A000DDF80CA00093049211B9791C00EB010A1D
:1034B000B7EB0A0004D4C0F1FF3007F1010A049011
:1034C000AAEB0700019044E0012F00DA0127002158
:1034D000112F01DD112000E03846CDE9000106A9D9
:1034E0000EA8FFF7A1FCDDE90F010E9A0391002160
:1034F00004910092BA4621070CD40399514500DA91
:103500008A46BAF1010F05DD009AAAF10101515C6A
:10351000302908D0B84202DA10F1040F06DA01218E
:10352000CDE9011015E0AAF10101E9E7002805DC69
:10353000049901440491AAEB000102E0411C5145A9
:1035400000DD8A460499401A401C01904FF000406B
:103550000290200704D40198504501DBCDF8048087
:1035600000208DF84F0002980DF14F07B0F1004F89
:1035700025D02B200E9002984FF0020800280CDA7C
:10358000404202902D200E9007E00A210298FCF79D
:10359000B8FF3031029007F8011DB8F10001A8F121
:1035A0000108F2DC02980028EFD1791E0E9808700D
:1035B000307800F0200040F0450007F8020D12A816
:1035C000C01B00F107081498007800B1012000EB3F
:1035D0000A01019801EBE07105984144401A401E30
:1035E0000590E00306D45B462146179A059800F043
:1035F0005DF805441498007818B15A461799904719
:103600006D1CE00324D55B462146179A059800F00F
:103610004DF805441CE00498002807DBDDE90301B0
:10362000884203DD0098405C179901E0179930202B
:103630005A469047049805F10105401C04900198F2
:10364000401E019004D12E205A46179990476D1CB8
:10365000BAF10001AAF1010ADDDC05E017F8010B5F
:103660005A46179990476D1CB8F10001A8F101085E
:10367000F4DC5B462146179A0598ABE62D00000066
:103680002B000000200000002DE9F0410446002539
:103690001E461746880404D405E039462020B0476A
:1036A0006D1C641EF9D52846BDE8F0812DE9F04176
:1036B000044600251E469046C80301D5302700E089
:1036C0002027880404D505E041463846B0476D1CE4
:1036D000641EF9D52846BDE8F0810A68531C0B60CA
:1036E0001070704700B587B001210A20FEF7EAF993
:1036F00001218804FEF7F6F907220A212648FEF781
:10370000EFF807220B212448FEF7EAF84FF4406057
:10371000059002208DF8180003208DF81900002074
:103720008DF81A0001208DF81B0005A91A48FEF734
:103730008FF84FF4E13001900020ADF80800ADF8AB
:103740000A00ADF80C00ADF810000C20ADF80E002A
:1037500001A91248FFF712FA012240F224410F4852
:10376000FFF7E7F901210D48FFF71FF940F2266145
:103770000A48FFF70BF927208DF8000002208DF88A
:10378000010004208DF8020001208DF80300684636
:10379000FEF7F4F807B000BD000402400048004006
:1037A00000B58FB001214805FEF78CF91A48FDF7E6
:1037B00003FD4FF0006000901848019018480290F7
:1037C0000020039080200490002005904FF480603A
:1037D00006900020079008904FF4807009904002F6
:1037E0000A9000200B9001200C9000200D900E906C
:1037F00069460948FDF7AEFD012240210748001F38
:10380000FFF7DFF880210448FDF7D0FD01210248D1
:10381000FDF7C6FC0FB000BD286002400448004020
:10382000A8C5002070B504460D46A1B20548FFF7B3
:103830000FFA00BF40210348FFF744F90028F9D0F0
:10384000204670BD00100140014908684968704772
:1038500028000020FEF70CFBFEF7D0FAFEF7CCF8AC
:103860001F48FEF79DFB1E48FEF702FCFDF7C2FA5B
:103870004FF416511B48FFF725F81BA21DA120A0ED
:10388000FFF78CFAFEF7E2F9FDF737FCFFF72AFFA6
:10389000FFF786FFFDF7E2FE40F28F6140F2CF7046
:1038A000FEF71AFB96211C48FEF7F6FC00201B4988
:1038B0000860002404E00020194921F81400641C69
:1038C00046F2A8108442F6D309E0FEF729FD154818
:1038D000007820B1FDF766FE002012490870F4E779
:1038E000400D03000010014032313A32383A353988
:1038F000000000004665622032372032303234004A
:10390000206275696C642074696D65203D202573A3
:103910002D2573200D0A000000000140A0824142C5
:1039200008010020DE0000202DE9F04106460D468A
:103930001746102101EB2510FFF7EAF905F00F00FB
:10394000FFF7E6F906F1B001C8B2FFF7E1F900248C
:1039500007E0144901EB4711085DFFF7BBF9601C54
:10396000C4B2102CF5DB102101EB2510FFF7D0F9C4
:1039700005F00F00FFF7CCF906F1AF01C8B2FFF771
:10398000C7F9002409E0074901EB471204F11001CF
:10399000505CFFF79FF9601CC4B2102CF3DBBDE84C
:1039A000F08100001C3B00082DE9F04106460D4661
:1039B0001746102101EB2510FFF7AAF905F00F00BB
:1039C000FFF7A6F906F1B001C8B2FFF7A1F900248C
:1039D00007E0144901EB0711085DFFF77BF9601C54
:1039E000C4B2082CF5DB102101EB2510FFF790F98C
:1039F00005F00F00FFF78CF906F1AF01C8B2FFF731
:103A000087F9002409E0074901EB071204F10801D6
:103A1000505CFFF75FF9601CC4B2082CF3DBBDE813
:103A2000F08100006C3A00080FB438B505A800908A
:103A30000C48009A0499FFF7D5F900200090094836
:103A4000FCF7F4FB85B2002406E00648015D064859
:103A5000FFF702F9601C84B2AC42F6DB38BC5DF8BB
:103A600014FB000058C40020004800400007081064
:103A70001008070000F008040408F0000008081F00
:103A800000000000000404FC04040000000E1010FC
:103A900010110E00000C142444840C00000C1011B2
:103AA00011120C00001804040488700000000304C4
:103AB000081F000000E0202424FC2400001F101137
:103AC0001110100000988404048870000007081189
:103AD0001118000000F0880404887000001C101009
:103AE000131C1000000000FC00000000000E11106C
:103AF00010110E0000384484844438000007081078
:103B00001008070000008C444488F000000000000A
:103B100000000000000C0C0000000000007C444786
:103B2000447C007F444444444447400002FE04FC7B
:103B3000888800FE4242424242C202000020202FFA
:103B40002133B569293533212F60200000007F40E3
:103B5000586848C84868584E417E00000000000080
:103B600000000000000000000000000000006C6C7D
:103B70000000000000000000000000000041414182
:103B80005D5555D55555555D4141410000800414A2
:103B90005454547E5555551505810700040444249A
:103BA0001C0704FF06050C1464040400020408301A
:103BB000C00000FF00806010180C0800DDDDDDDDB6
:103BC000DCBBBBDDDDDDDDDDDDDDDDDD98888888AE
:103BD0008888888877777777778888888555555655
:103BE00066666666666666666668888883333332AC
:103BF00022222222222222222228888D725F7370A2
:103C000028307825303878293A30782530387820AF
:103C10003078253038782030782530387820307862
:103C200025303878203078253038782030782530A5
:103C3000387820307825303878203078253038783A
:103C40000D0A000041542B434950534552564552EA
:103C50003D312C383030300D0A00000041542B43E8
:103C600049504D55583D310D0A00000041542B4339
:103C7000574D4F44453D320D0A00000041542B433F
:103C8000575341503D22455350383236365F4459E0
:103C9000572D333030222C223132333435363738F9
:103CA000222C352C330D0A0041542B4349505345E7
:103CB0004E440D0A0000000041542B434946535224
:103CC0000D0A000041540D0A000000003E000000F3
:103CD0004F4B00004349465352000000FC3C000893
:103CE0000000002008010000082E0008043E000823
:103CF00008010020708C0100182E000800009001BF
:103D000000000000000000000000000000000000B3
:103D10000000000000000000000000000000AA43B6
:103D2000640000000000000000000000000000002F
:103D3000010000004D180008050000000900000007
:103D40004B18000825000000630000004918000817
:103D500093030000E7030000F517000800000000CF
:103D600000000000E8030000000000000000000068
:103D70000000000000000000C43C0008D03C000827
:103D8000881300006C3C0008D03C0008D0070000FD
:103D90007C3C0008D03C0008D00700005C3C0008D8
:103DA000D03C0008D0070000443C0008D03C00088C
:103DB000D0070000B83C0008D43C0008D007000041
:103DC000A83C0008CC3C0008D00700000000000020
:103DD00000000000000000000000000000000000E3
:103DE00000000000010203040102030406070809A1
:103DF000007A030A00000000000000000102030432
:043E000006070809A0
:040000050800018965
:00000001FF
